{
  "contractName": "Election",
  "abi": [
    {
      "inputs": [],
      "payable": false,
      "stateMutability": "nonpayable",
      "type": "constructor"
    },
    {
      "anonymous": false,
      "inputs": [
        {
          "indexed": true,
          "internalType": "uint256",
          "name": "_candidateId",
          "type": "uint256"
        }
      ],
      "name": "votedEvent",
      "type": "event"
    },
    {
      "constant": true,
      "inputs": [
        {
          "internalType": "uint256",
          "name": "",
          "type": "uint256"
        }
      ],
      "name": "candidates",
      "outputs": [
        {
          "internalType": "uint256",
          "name": "id",
          "type": "uint256"
        },
        {
          "internalType": "string",
          "name": "name",
          "type": "string"
        },
        {
          "internalType": "string",
          "name": "party",
          "type": "string"
        },
        {
          "internalType": "uint256",
          "name": "voteCount",
          "type": "uint256"
        }
      ],
      "payable": false,
      "stateMutability": "view",
      "type": "function"
    },
    {
      "constant": true,
      "inputs": [],
      "name": "candidatesCount",
      "outputs": [
        {
          "internalType": "uint256",
          "name": "",
          "type": "uint256"
        }
      ],
      "payable": false,
      "stateMutability": "view",
      "type": "function"
    },
    {
      "constant": true,
      "inputs": [
        {
          "internalType": "address",
          "name": "",
          "type": "address"
        }
      ],
      "name": "voters",
      "outputs": [
        {
          "internalType": "bool",
          "name": "",
          "type": "bool"
        }
      ],
      "payable": false,
      "stateMutability": "view",
      "type": "function"
    },
    {
      "constant": false,
      "inputs": [
        {
          "internalType": "uint256",
          "name": "_candidateId",
          "type": "uint256"
        }
      ],
      "name": "vote",
      "outputs": [],
      "payable": false,
      "stateMutability": "nonpayable",
      "type": "function"
    }
  ],
  "bytecode": "0x608060405234801561001057600080fd5b5061008b6040518060400160405280601181526020017f56616c646173204b617a6c6175736b61730000000000000000000000000000008152506040518060400160405280601881526020017f4461726e696f73204c69657475766f732070617274696a61000000000000000081525061018460201b60201c565b6101056040518060400160405280600f81526020017f5061756c697573205a6172616e6b6100000000000000000000000000000000008152506040518060400160405280601181526020017fc5a06961756c69c5b32050617274696a6100000000000000000000000000000081525061018460201b60201c565b61017f6040518060400160405280601281526020017f5061756c697573204d796b6f6c616974697300000000000000000000000000008152506040518060400160405280600f81526020017f416c79746175732070617274696a61000000000000000000000000000000000081525061018460201b60201c565b610416565b6001826040518082805190602001908083835b602083106101ba5780518252602082019150602081019050602083039250610197565b6001836020036101000a038019825116818451168082178552505050505050905001915050908152602001604051809103902060009054906101000a900460ff1615610251576040517f08c379a00000000000000000000000000000000000000000000000000000000081526004018080602001828103825260278152602001806109186027913960400191505060405180910390fd5b60036000815480929190600101919050555060405180608001604052806003548152602001838152602001828152602001600081525060008060035481526020019081526020016000206000820151816000015560208201518160010190805190602001906102c1929190610371565b5060408201518160020190805190602001906102de929190610371565b5060608201518160030155905050600180836040518082805190602001908083835b602083106103235780518252602082019150602081019050602083039250610300565b6001836020036101000a038019825116818451168082178552505050505050905001915050908152602001604051809103902060006101000a81548160ff0219169083151502179055505050565b828054600181600116156101000203166002900490600052602060002090601f016020900481019282601f106103b257805160ff19168380011785556103e0565b828001600101855582156103e0579182015b828111156103df5782518255916020019190600101906103c4565b5b5090506103ed91906103f1565b5090565b61041391905b8082111561040f5760008160009055506001016103f7565b5090565b90565b6104f3806104256000396000f3fe608060405234801561001057600080fd5b506004361061004c5760003560e01c80630121b93f146100515780632d35a8a21461007f5780633477ee2e1461009d578063a3ec138d146101be575b600080fd5b61007d6004803603602081101561006757600080fd5b810190808035906020019092919050505061021a565b005b610087610338565b6040518082815260200191505060405180910390f35b6100c9600480360360208110156100b357600080fd5b810190808035906020019092919050505061033e565b604051808581526020018060200180602001848152602001838103835286818151815260200191508051906020019080838360005b838110156101195780820151818401526020810190506100fe565b50505050905090810190601f1680156101465780820380516001836020036101000a031916815260200191505b50838103825285818151815260200191508051906020019080838360005b8381101561017f578082015181840152602081019050610164565b50505050905090810190601f1680156101ac5780820380516001836020036101000a031916815260200191505b50965050505050505060405180910390f35b610200600480360360208110156101d457600080fd5b81019080803573ffffffffffffffffffffffffffffffffffffffff16906020019092919050505061049e565b604051808215151515815260200191505060405180910390f35b600260003373ffffffffffffffffffffffffffffffffffffffff1673ffffffffffffffffffffffffffffffffffffffff16815260200190815260200160002060009054906101000a900460ff161561027157600080fd5b600081118015610282575060035481105b61028b57600080fd5b6001600260003373ffffffffffffffffffffffffffffffffffffffff1673ffffffffffffffffffffffffffffffffffffffff16815260200190815260200160002060006101000a81548160ff02191690831515021790555060008082815260200190815260200160002060030160008154809291906001019190505550807ffff3c900d938d21d0990d786e819f29b8d05c1ef587b462b939609625b684b1660405160405180910390a250565b60035481565b6000602052806000526040600020600091509050806000015490806001018054600181600116156101000203166002900480601f0160208091040260200160405190810160405280929190818152602001828054600181600116156101000203166002900480156103f05780601f106103c5576101008083540402835291602001916103f0565b820191906000526020600020905b8154815290600101906020018083116103d357829003601f168201915b505050505090806002018054600181600116156101000203166002900480601f01602080910402602001604051908101604052809291908181526020018280546001816001161561010002031660029004801561048e5780601f106104635761010080835404028352916020019161048e565b820191906000526020600020905b81548152906001019060200180831161047157829003601f168201915b5050505050908060030154905084565b60026020528060005260406000206000915054906101000a900460ff168156fea265627a7a72315820eb963dfc60bffad7055feb4061f6cc36e9d83305b47b4597119ab9f86fc5f9f064736f6c6343000510003243616e64696461746520776974682074686973206e616d6520616c726561647920657869737473",
  "source": "pragma solidity ^0.5;\r\n\r\ncontract Election {\r\n    struct Candidate {\r\n        uint256 id;\r\n        string name;\r\n        string party;\r\n        uint256 voteCount;\r\n    }\r\n\r\n    event votedEvent(uint256 indexed _candidateId);\r\n\r\n    mapping(uint256 => Candidate) public candidates;\r\n    mapping(string => bool) candidateNames;\r\n    mapping(address => bool) public voters;\r\n    uint256 public candidatesCount;\r\n\r\n    function addCandidate(string memory _name, string memory _party) private {\r\n        require(\r\n            !candidateNames[_name],\r\n            \"Candidate with this name already exists\"\r\n        );\r\n        candidatesCount++;\r\n        candidates[candidatesCount] = Candidate(\r\n            candidatesCount,\r\n            _name,\r\n            _party,\r\n            0\r\n        );\r\n        candidateNames[_name] = true;\r\n    }\r\n\r\n    function vote(uint256 _candidateId) public {\r\n        require(!voters[msg.sender]);\r\n        require(_candidateId > 0 && _candidateId < candidatesCount);\r\n        voters[msg.sender] = true;\r\n        candidates[_candidateId].voteCount++;\r\n        emit votedEvent(_candidateId);\r\n    }\r\n\r\n    constructor() public {\r\n        addCandidate(\"Valdas Kazlauskas\", \"Darnios Lietuvos partija\");\r\n        addCandidate(\"Paulius Zaranka\", \"Šiaulių Partija\");\r\n        addCandidate(\"Paulius Mykolaitis\", \"Alytaus partija\");\r\n    }\r\n}\r\n",
  "sourcePath": "C:/Users/Paulius/Desktop/naujas/SmartElection/contracts/Election.sol",
  "compiler": {
    "name": "solc",
    "version": "0.5.16+commit.9c3226ce.Emscripten.clang"
  },
  "schemaVersion": "3.3.2",
  "updatedAt": "2020-12-22T19:30:23.611Z",
  "networkType": "ethereum",
  "devdoc": {
    "methods": {}
  },
  "userdoc": {
    "methods": {}
  }
}